{
  "contractName": "BatchSender",
  "abi": [
    {
      "inputs": [],
      "stateMutability": "nonpayable",
      "type": "constructor"
    },
    {
      "inputs": [
        {
          "internalType": "address",
          "name": "newOwner",
          "type": "address"
        }
      ],
      "name": "setOwner",
      "outputs": [],
      "stateMutability": "nonpayable",
      "type": "function"
    },
    {
      "inputs": [
        {
          "internalType": "address",
          "name": "receiver",
          "type": "address"
        }
      ],
      "name": "sendEther",
      "outputs": [
        {
          "internalType": "address",
          "name": "",
          "type": "address"
        }
      ],
      "stateMutability": "view",
      "type": "function"
    }
  ],
  "bytecode": "0x608060405234801561001057600080fd5b50336000806101000a81548173ffffffffffffffffffffffffffffffffffffffff021916908373ffffffffffffffffffffffffffffffffffffffff160217905550610459806100606000396000f3fe608060405234801561001057600080fd5b50600436106100365760003560e01c806313af40351461003b57806348c981e214610057575b600080fd5b61005560048036038101906100509190610295565b610087565b005b610071600480360381019061006c9190610295565b6101e7565b60405161007e9190610317565b60405180910390f35b60008054906101000a900473ffffffffffffffffffffffffffffffffffffffff1673ffffffffffffffffffffffffffffffffffffffff163373ffffffffffffffffffffffffffffffffffffffff1614610115576040517f08c379a000000000000000000000000000000000000000000000000000000000815260040161010c90610352565b60405180910390fd5b60008054906101000a900473ffffffffffffffffffffffffffffffffffffffff1673ffffffffffffffffffffffffffffffffffffffff168173ffffffffffffffffffffffffffffffffffffffff1614156101a4576040517f08c379a000000000000000000000000000000000000000000000000000000000815260040161019b90610332565b60405180910390fd5b806000806101000a81548173ffffffffffffffffffffffffffffffffffffffff021916908373ffffffffffffffffffffffffffffffffffffffff16021790555050565b60008060009054906101000a900473ffffffffffffffffffffffffffffffffffffffff1673ffffffffffffffffffffffffffffffffffffffff163373ffffffffffffffffffffffffffffffffffffffff1614610278576040517f08c379a000000000000000000000000000000000000000000000000000000000815260040161026f90610352565b60405180910390fd5b819050919050565b60008135905061028f8161040c565b92915050565b6000602082840312156102ab576102aa6103b5565b5b60006102b984828501610280565b91505092915050565b6102cb81610383565b82525050565b60006102de600a83610372565b91506102e9826103ba565b602082019050919050565b6000610301600983610372565b915061030c826103e3565b602082019050919050565b600060208201905061032c60008301846102c2565b92915050565b6000602082019050818103600083015261034b816102d1565b9050919050565b6000602082019050818103600083015261036b816102f4565b9050919050565b600082825260208201905092915050565b600061038e82610395565b9050919050565b600073ffffffffffffffffffffffffffffffffffffffff82169050919050565b600080fd5b7f53616d65206f776e657200000000000000000000000000000000000000000000600082015250565b7f4e6f74206f776e65720000000000000000000000000000000000000000000000600082015250565b61041581610383565b811461042057600080fd5b5056fea264697066735822122039fa7556829ddd696fe5859162bcade0c394c1bc7f5e2d21a8eeb5fb82967fab64736f6c63430008060033",
  "immutableReferences": {},
  "source": "// SPDX-License-Identifier: UNLICENSED\npragma solidity ^0.8.6;\n\ncontract BatchSender {\n    address private owner;\n\n    constructor () {\n        owner = msg.sender;\n    }\n\n    function setOwner(address newOwner) public {\n        require(msg.sender == owner, \"Not owner\");\n        require(newOwner != owner, \"Same owner\");\n\n        owner = newOwner;\n    }\n\n    function sendEther(address receiver) public view returns (address) {\n        require(msg.sender == owner, \"Not owner\");\n        return receiver;\n        // TODO: \n    }\n}",
  "sourcePath": "/Users/farukterzioglu/code/btcturk/batch-sender/contracts/batch-sender.sol",
  "compiler": {
    "name": "solc",
    "version": "0.8.6+commit.11564f7e.Emscripten.clang"
  },
  "schemaVersion": "3.4.3",
  "updatedAt": "2021-11-25T19:00:36.197Z",
  "devdoc": {
    "kind": "dev",
    "methods": {},
    "version": 1
  },
  "userdoc": {
    "kind": "user",
    "methods": {},
    "version": 1
  }
}